{
  "_format": "hh-sol-artifact-1",
  "contractName": "TOSBT",
  "sourceName": "contracts/TOSBT.sol",
  "abi": [
    {
      "inputs": [
        {
          "internalType": "address",
          "name": "forwarder",
          "type": "address"
        }
      ],
      "stateMutability": "nonpayable",
      "type": "constructor"
    },
    {
      "inputs": [],
      "name": "ERC721EnumerableForbiddenBatchMint",
      "type": "error"
    },
    {
      "inputs": [
        {
          "internalType": "address",
          "name": "sender",
          "type": "address"
        },
        {
          "internalType": "uint256",
          "name": "tokenId",
          "type": "uint256"
        },
        {
          "internalType": "address",
          "name": "owner",
          "type": "address"
        }
      ],
      "name": "ERC721IncorrectOwner",
      "type": "error"
    },
    {
      "inputs": [
        {
          "internalType": "address",
          "name": "operator",
          "type": "address"
        },
        {
          "internalType": "uint256",
          "name": "tokenId",
          "type": "uint256"
        }
      ],
      "name": "ERC721InsufficientApproval",
      "type": "error"
    },
    {
      "inputs": [
        {
          "internalType": "address",
          "name": "approver",
          "type": "address"
        }
      ],
      "name": "ERC721InvalidApprover",
      "type": "error"
    },
    {
      "inputs": [
        {
          "internalType": "address",
          "name": "operator",
          "type": "address"
        }
      ],
      "name": "ERC721InvalidOperator",
      "type": "error"
    },
    {
      "inputs": [
        {
          "internalType": "address",
          "name": "owner",
          "type": "address"
        }
      ],
      "name": "ERC721InvalidOwner",
      "type": "error"
    },
    {
      "inputs": [
        {
          "internalType": "address",
          "name": "receiver",
          "type": "address"
        }
      ],
      "name": "ERC721InvalidReceiver",
      "type": "error"
    },
    {
      "inputs": [
        {
          "internalType": "address",
          "name": "sender",
          "type": "address"
        }
      ],
      "name": "ERC721InvalidSender",
      "type": "error"
    },
    {
      "inputs": [
        {
          "internalType": "uint256",
          "name": "tokenId",
          "type": "uint256"
        }
      ],
      "name": "ERC721NonexistentToken",
      "type": "error"
    },
    {
      "inputs": [
        {
          "internalType": "address",
          "name": "owner",
          "type": "address"
        },
        {
          "internalType": "uint256",
          "name": "index",
          "type": "uint256"
        }
      ],
      "name": "ERC721OutOfBoundsIndex",
      "type": "error"
    },
    {
      "inputs": [
        {
          "internalType": "address",
          "name": "owner",
          "type": "address"
        }
      ],
      "name": "OwnableInvalidOwner",
      "type": "error"
    },
    {
      "inputs": [
        {
          "internalType": "address",
          "name": "account",
          "type": "address"
        }
      ],
      "name": "OwnableUnauthorizedAccount",
      "type": "error"
    },
    {
      "anonymous": false,
      "inputs": [
        {
          "indexed": true,
          "internalType": "address",
          "name": "owner",
          "type": "address"
        },
        {
          "indexed": true,
          "internalType": "address",
          "name": "approved",
          "type": "address"
        },
        {
          "indexed": true,
          "internalType": "uint256",
          "name": "tokenId",
          "type": "uint256"
        }
      ],
      "name": "Approval",
      "type": "event"
    },
    {
      "anonymous": false,
      "inputs": [
        {
          "indexed": true,
          "internalType": "address",
          "name": "owner",
          "type": "address"
        },
        {
          "indexed": true,
          "internalType": "address",
          "name": "operator",
          "type": "address"
        },
        {
          "indexed": false,
          "internalType": "bool",
          "name": "approved",
          "type": "bool"
        }
      ],
      "name": "ApprovalForAll",
      "type": "event"
    },
    {
      "anonymous": false,
      "inputs": [
        {
          "indexed": false,
          "internalType": "uint256",
          "name": "_fromTokenId",
          "type": "uint256"
        },
        {
          "indexed": false,
          "internalType": "uint256",
          "name": "_toTokenId",
          "type": "uint256"
        }
      ],
      "name": "BatchMetadataUpdate",
      "type": "event"
    },
    {
      "anonymous": false,
      "inputs": [
        {
          "indexed": false,
          "internalType": "uint256",
          "name": "_tokenId",
          "type": "uint256"
        }
      ],
      "name": "MetadataUpdate",
      "type": "event"
    },
    {
      "anonymous": false,
      "inputs": [
        {
          "indexed": true,
          "internalType": "address",
          "name": "previousOwner",
          "type": "address"
        },
        {
          "indexed": true,
          "internalType": "address",
          "name": "newOwner",
          "type": "address"
        }
      ],
      "name": "OwnershipTransferred",
      "type": "event"
    },
    {
      "anonymous": false,
      "inputs": [
        {
          "indexed": false,
          "internalType": "address",
          "name": "recipient",
          "type": "address"
        },
        {
          "indexed": false,
          "internalType": "uint256",
          "name": "tokenId",
          "type": "uint256"
        }
      ],
      "name": "SBTMinted",
      "type": "event"
    },
    {
      "anonymous": false,
      "inputs": [
        {
          "indexed": true,
          "internalType": "address",
          "name": "from",
          "type": "address"
        },
        {
          "indexed": true,
          "internalType": "address",
          "name": "to",
          "type": "address"
        },
        {
          "indexed": true,
          "internalType": "uint256",
          "name": "tokenId",
          "type": "uint256"
        }
      ],
      "name": "Transfer",
      "type": "event"
    },
    {
      "inputs": [
        {
          "internalType": "address",
          "name": "",
          "type": "address"
        },
        {
          "internalType": "uint256",
          "name": "",
          "type": "uint256"
        }
      ],
      "name": "approve",
      "outputs": [],
      "stateMutability": "pure",
      "type": "function"
    },
    {
      "inputs": [
        {
          "internalType": "address",
          "name": "owner",
          "type": "address"
        }
      ],
      "name": "balanceOf",
      "outputs": [
        {
          "internalType": "uint256",
          "name": "",
          "type": "uint256"
        }
      ],
      "stateMutability": "view",
      "type": "function"
    },
    {
      "inputs": [
        {
          "internalType": "uint256",
          "name": "tokenId",
          "type": "uint256"
        }
      ],
      "name": "burn",
      "outputs": [],
      "stateMutability": "nonpayable",
      "type": "function"
    },
    {
      "inputs": [
        {
          "internalType": "uint256",
          "name": "tokenId",
          "type": "uint256"
        }
      ],
      "name": "getApproved",
      "outputs": [
        {
          "internalType": "address",
          "name": "",
          "type": "address"
        }
      ],
      "stateMutability": "view",
      "type": "function"
    },
    {
      "inputs": [
        {
          "internalType": "address",
          "name": "owner",
          "type": "address"
        },
        {
          "internalType": "address",
          "name": "operator",
          "type": "address"
        }
      ],
      "name": "isApprovedForAll",
      "outputs": [
        {
          "internalType": "bool",
          "name": "",
          "type": "bool"
        }
      ],
      "stateMutability": "view",
      "type": "function"
    },
    {
      "inputs": [
        {
          "internalType": "address",
          "name": "forwarder",
          "type": "address"
        }
      ],
      "name": "isTrustedForwarder",
      "outputs": [
        {
          "internalType": "bool",
          "name": "",
          "type": "bool"
        }
      ],
      "stateMutability": "view",
      "type": "function"
    },
    {
      "inputs": [
        {
          "internalType": "address",
          "name": "recipient",
          "type": "address"
        },
        {
          "internalType": "string",
          "name": "tokenUrl",
          "type": "string"
        }
      ],
      "name": "mintSBT",
      "outputs": [],
      "stateMutability": "nonpayable",
      "type": "function"
    },
    {
      "inputs": [],
      "name": "name",
      "outputs": [
        {
          "internalType": "string",
          "name": "",
          "type": "string"
        }
      ],
      "stateMutability": "view",
      "type": "function"
    },
    {
      "inputs": [],
      "name": "owner",
      "outputs": [
        {
          "internalType": "address",
          "name": "",
          "type": "address"
        }
      ],
      "stateMutability": "view",
      "type": "function"
    },
    {
      "inputs": [
        {
          "internalType": "uint256",
          "name": "tokenId",
          "type": "uint256"
        }
      ],
      "name": "ownerOf",
      "outputs": [
        {
          "internalType": "address",
          "name": "",
          "type": "address"
        }
      ],
      "stateMutability": "view",
      "type": "function"
    },
    {
      "inputs": [],
      "name": "renounceOwnership",
      "outputs": [],
      "stateMutability": "nonpayable",
      "type": "function"
    },
    {
      "inputs": [
        {
          "internalType": "address",
          "name": "from",
          "type": "address"
        },
        {
          "internalType": "address",
          "name": "to",
          "type": "address"
        },
        {
          "internalType": "uint256",
          "name": "tokenId",
          "type": "uint256"
        }
      ],
      "name": "safeTransferFrom",
      "outputs": [],
      "stateMutability": "nonpayable",
      "type": "function"
    },
    {
      "inputs": [
        {
          "internalType": "address",
          "name": "",
          "type": "address"
        },
        {
          "internalType": "address",
          "name": "",
          "type": "address"
        },
        {
          "internalType": "uint256",
          "name": "",
          "type": "uint256"
        },
        {
          "internalType": "bytes",
          "name": "",
          "type": "bytes"
        }
      ],
      "name": "safeTransferFrom",
      "outputs": [],
      "stateMutability": "pure",
      "type": "function"
    },
    {
      "inputs": [
        {
          "internalType": "address",
          "name": "",
          "type": "address"
        },
        {
          "internalType": "bool",
          "name": "",
          "type": "bool"
        }
      ],
      "name": "setApprovalForAll",
      "outputs": [],
      "stateMutability": "pure",
      "type": "function"
    },
    {
      "inputs": [
        {
          "internalType": "bytes4",
          "name": "interfaceId",
          "type": "bytes4"
        }
      ],
      "name": "supportsInterface",
      "outputs": [
        {
          "internalType": "bool",
          "name": "",
          "type": "bool"
        }
      ],
      "stateMutability": "view",
      "type": "function"
    },
    {
      "inputs": [],
      "name": "symbol",
      "outputs": [
        {
          "internalType": "string",
          "name": "",
          "type": "string"
        }
      ],
      "stateMutability": "view",
      "type": "function"
    },
    {
      "inputs": [
        {
          "internalType": "uint256",
          "name": "index",
          "type": "uint256"
        }
      ],
      "name": "tokenByIndex",
      "outputs": [
        {
          "internalType": "uint256",
          "name": "",
          "type": "uint256"
        }
      ],
      "stateMutability": "view",
      "type": "function"
    },
    {
      "inputs": [
        {
          "internalType": "address",
          "name": "owner",
          "type": "address"
        },
        {
          "internalType": "uint256",
          "name": "index",
          "type": "uint256"
        }
      ],
      "name": "tokenOfOwnerByIndex",
      "outputs": [
        {
          "internalType": "uint256",
          "name": "",
          "type": "uint256"
        }
      ],
      "stateMutability": "view",
      "type": "function"
    },
    {
      "inputs": [
        {
          "internalType": "uint256",
          "name": "tokenId",
          "type": "uint256"
        }
      ],
      "name": "tokenURI",
      "outputs": [
        {
          "internalType": "string",
          "name": "",
          "type": "string"
        }
      ],
      "stateMutability": "view",
      "type": "function"
    },
    {
      "inputs": [],
      "name": "totalSupply",
      "outputs": [
        {
          "internalType": "uint256",
          "name": "",
          "type": "uint256"
        }
      ],
      "stateMutability": "view",
      "type": "function"
    },
    {
      "inputs": [
        {
          "internalType": "address",
          "name": "",
          "type": "address"
        },
        {
          "internalType": "address",
          "name": "",
          "type": "address"
        },
        {
          "internalType": "uint256",
          "name": "",
          "type": "uint256"
        }
      ],
      "name": "transferFrom",
      "outputs": [],
      "stateMutability": "pure",
      "type": "function"
    },
    {
      "inputs": [
        {
          "internalType": "address",
          "name": "newOwner",
          "type": "address"
        }
      ],
      "name": "transferOwnership",
      "outputs": [],
      "stateMutability": "nonpayable",
      "type": "function"
    },
    {
      "inputs": [],
      "name": "trustedForwarder",
      "outputs": [
        {
          "internalType": "address",
          "name": "",
          "type": "address"
        }
      ],
      "stateMutability": "view",
      "type": "function"
    }
  ],
  "bytecode": "0x60a06040523480156200001157600080fd5b50604051620032e3380380620032e38339818101604052810190620000379190620002be565b80336040518060400160405280600581526020017f544f5342540000000000000000000000000000000000000000000000000000008152506040518060400160405280600381526020017f544f5400000000000000000000000000000000000000000000000000000000008152508160009081620000b691906200056a565b508060019081620000c891906200056a565b505050600073ffffffffffffffffffffffffffffffffffffffff168173ffffffffffffffffffffffffffffffffffffffff1603620001405760006040517f1e4fbdf700000000000000000000000000000000000000000000000000000000815260040162000137919062000662565b60405180910390fd5b62000151816200018e60201b60201c565b508073ffffffffffffffffffffffffffffffffffffffff1660808173ffffffffffffffffffffffffffffffffffffffff168152505050506200067f565b6000600b60009054906101000a900473ffffffffffffffffffffffffffffffffffffffff16905081600b60006101000a81548173ffffffffffffffffffffffffffffffffffffffff021916908373ffffffffffffffffffffffffffffffffffffffff1602179055508173ffffffffffffffffffffffffffffffffffffffff168173ffffffffffffffffffffffffffffffffffffffff167f8be0079c531659141344cd1fd0a4f28419497f9722a3daafe3b4186f6b6457e060405160405180910390a35050565b600080fd5b600073ffffffffffffffffffffffffffffffffffffffff82169050919050565b6000620002868262000259565b9050919050565b620002988162000279565b8114620002a457600080fd5b50565b600081519050620002b8816200028d565b92915050565b600060208284031215620002d757620002d662000254565b5b6000620002e784828501620002a7565b91505092915050565b600081519050919050565b7f4e487b7100000000000000000000000000000000000000000000000000000000600052604160045260246000fd5b7f4e487b7100000000000000000000000000000000000000000000000000000000600052602260045260246000fd5b600060028204905060018216806200037257607f821691505b6020821081036200038857620003876200032a565b5b50919050565b60008190508160005260206000209050919050565b60006020601f8301049050919050565b600082821b905092915050565b600060088302620003f27fffffffffffffffffffffffffffffffffffffffffffffffffffffffffffffffff82620003b3565b620003fe8683620003b3565b95508019841693508086168417925050509392505050565b6000819050919050565b6000819050919050565b60006200044b620004456200043f8462000416565b62000420565b62000416565b9050919050565b6000819050919050565b62000467836200042a565b6200047f620004768262000452565b848454620003c0565b825550505050565b600090565b6200049662000487565b620004a38184846200045c565b505050565b5b81811015620004cb57620004bf6000826200048c565b600181019050620004a9565b5050565b601f8211156200051a57620004e4816200038e565b620004ef84620003a3565b81016020851015620004ff578190505b620005176200050e85620003a3565b830182620004a8565b50505b505050565b600082821c905092915050565b60006200053f600019846008026200051f565b1980831691505092915050565b60006200055a83836200052c565b9150826002028217905092915050565b6200057582620002f0565b67ffffffffffffffff811115620005915762000590620002fb565b5b6200059d825462000359565b620005aa828285620004cf565b600060209050601f831160018114620005e25760008415620005cd578287015190505b620005d985826200054c565b86555062000649565b601f198416620005f2866200038e565b60005b828110156200061c57848901518255600182019150602085019450602081019050620005f5565b868310156200063c578489015162000638601f8916826200052c565b8355505b6001600288020188555050505b505050505050565b6200065c8162000279565b82525050565b600060208201905062000679600083018462000651565b92915050565b608051612c486200069b600039600061083e0152612c486000f3fe608060405234801561001057600080fd5b506004361061014d5760003560e01c80636352211e116100c357806395d89b411161007c57806395d89b41146103b0578063a22cb465146103ce578063b88d4fde146103ea578063c87b56dd14610406578063e985e9c514610436578063f2fde38b146104665761014d565b80636352211e146102ee57806370a082311461031e578063715018a61461034e5780637da0a877146103585780638da5cb5b146103765780639373f9ac146103945761014d565b806323b872dd1161011557806323b872dd1461020a5780632f745c591461022657806342842e0e1461025657806342966c68146102725780634f6ccce71461028e578063572b6c05146102be5761014d565b806301ffc9a71461015257806306fdde0314610182578063081812fc146101a0578063095ea7b3146101d057806318160ddd146101ec575b600080fd5b61016c60048036038101906101679190611f46565b610482565b6040516101799190611f8e565b60405180910390f35b61018a610494565b6040516101979190612039565b60405180910390f35b6101ba60048036038101906101b59190612091565b610526565b6040516101c791906120ff565b60405180910390f35b6101ea60048036038101906101e59190612146565b610542565b005b6101f461057d565b6040516102019190612195565b60405180910390f35b610224600480360381019061021f91906121b0565b61058a565b005b610240600480360381019061023b9190612146565b6105c5565b60405161024d9190612195565b60405180910390f35b610270600480360381019061026b91906121b0565b61066e565b005b61028c60048036038101906102879190612091565b61068e565b005b6102a860048036038101906102a39190612091565b6106a5565b6040516102b59190612195565b60405180910390f35b6102d860048036038101906102d39190612203565b61071b565b6040516102e59190611f8e565b60405180910390f35b61030860048036038101906103039190612091565b61075a565b60405161031591906120ff565b60405180910390f35b61033860048036038101906103339190612203565b61076c565b6040516103459190612195565b60405180910390f35b610356610826565b005b61036061083a565b60405161036d91906120ff565b60405180910390f35b61037e610862565b60405161038b91906120ff565b60405180910390f35b6103ae60048036038101906103a99190612365565b61088c565b005b6103b8610930565b6040516103c59190612039565b60405180910390f35b6103e860048036038101906103e391906123ed565b6109c2565b005b61040460048036038101906103ff91906124ce565b6109fd565b005b610420600480360381019061041b9190612091565b610a38565b60405161042d9190612039565b60405180910390f35b610450600480360381019061044b9190612551565b610a4a565b60405161045d9190611f8e565b60405180910390f35b610480600480360381019061047b9190612203565b610ade565b005b600061048d82610b64565b9050919050565b6060600080546104a3906125c0565b80601f01602080910402602001604051908101604052809291908181526020018280546104cf906125c0565b801561051c5780601f106104f15761010080835404028352916020019161051c565b820191906000526020600020905b8154815290600101906020018083116104ff57829003601f168201915b5050505050905090565b600061053182610bde565b5061053b82610c66565b9050919050565b6040517f08c379a000000000000000000000000000000000000000000000000000000000815260040161057490612663565b60405180910390fd5b6000600980549050905090565b6040517f08c379a00000000000000000000000000000000000000000000000000000000081526004016105bc906126f5565b60405180910390fd5b60006105d08361076c565b82106106155782826040517fa57d13dc00000000000000000000000000000000000000000000000000000000815260040161060c929190612715565b60405180910390fd5b600760008473ffffffffffffffffffffffffffffffffffffffff1673ffffffffffffffffffffffffffffffffffffffff168152602001908152602001600020600083815260200190815260200160002054905092915050565b610689838383604051806020016040528060008152506109fd565b505050565b6106a160008261069c610ca3565b610cb2565b5050565b60006106af61057d565b82106106f5576000826040517fa57d13dc0000000000000000000000000000000000000000000000000000000081526004016106ec929190612715565b60405180910390fd5b600982815481106107095761070861273e565b5b90600052602060002001549050919050565b600061072561083a565b73ffffffffffffffffffffffffffffffffffffffff168273ffffffffffffffffffffffffffffffffffffffff16149050919050565b600061076582610bde565b9050919050565b60008073ffffffffffffffffffffffffffffffffffffffff168273ffffffffffffffffffffffffffffffffffffffff16036107df5760006040517f89c62b640000000000000000000000000000000000000000000000000000000081526004016107d691906120ff565b60405180910390fd5b600360008373ffffffffffffffffffffffffffffffffffffffff1673ffffffffffffffffffffffffffffffffffffffff168152602001908152602001600020549050919050565b61082e610cc8565b6108386000610d4f565b565b60007f0000000000000000000000000000000000000000000000000000000000000000905090565b6000600b60009054906101000a900473ffffffffffffffffffffffffffffffffffffffff16905090565b610894610cc8565b6001600c60008282546108a7919061279c565b925050819055506000600c5490506108bf8382610e15565b6108f281836108cd84610f0e565b6040516020016108de9291906128a4565b604051602081830303815290604052610fdc565b7f69180e5630fe9bd5b50dab3216e4151093508a9dfe7eb5fa1166632c7bc659368382604051610923929190612715565b60405180910390a1505050565b60606001805461093f906125c0565b80601f016020809104026020016040519081016040528092919081815260200182805461096b906125c0565b80156109b85780601f1061098d576101008083540402835291602001916109b8565b820191906000526020600020905b81548152906001019060200180831161099b57829003601f168201915b5050505050905090565b6040517f08c379a00000000000000000000000000000000000000000000000000000000081526004016109f490612663565b60405180910390fd5b6040517f08c379a0000000000000000000000000000000000000000000000000000000008152600401610a2f906126f5565b60405180910390fd5b6060610a4382611038565b9050919050565b6000600560008473ffffffffffffffffffffffffffffffffffffffff1673ffffffffffffffffffffffffffffffffffffffff16815260200190815260200160002060008373ffffffffffffffffffffffffffffffffffffffff1673ffffffffffffffffffffffffffffffffffffffff16815260200190815260200160002060009054906101000a900460ff16905092915050565b610ae6610cc8565b600073ffffffffffffffffffffffffffffffffffffffff168173ffffffffffffffffffffffffffffffffffffffff1603610b585760006040517f1e4fbdf7000000000000000000000000000000000000000000000000000000008152600401610b4f91906120ff565b60405180910390fd5b610b6181610d4f565b50565b60007f780e9d63000000000000000000000000000000000000000000000000000000007bffffffffffffffffffffffffffffffffffffffffffffffffffffffff1916827bffffffffffffffffffffffffffffffffffffffffffffffffffffffff19161480610bd75750610bd68261114b565b5b9050919050565b600080610bea836111ac565b9050600073ffffffffffffffffffffffffffffffffffffffff168173ffffffffffffffffffffffffffffffffffffffff1603610c5d57826040517f7e273289000000000000000000000000000000000000000000000000000000008152600401610c549190612195565b60405180910390fd5b80915050919050565b60006004600083815260200190815260200160002060009054906101000a900473ffffffffffffffffffffffffffffffffffffffff169050919050565b6000610cad6111e9565b905090565b6000610cbf84848461122c565b90509392505050565b610cd0610ca3565b73ffffffffffffffffffffffffffffffffffffffff16610cee610862565b73ffffffffffffffffffffffffffffffffffffffff1614610d4d57610d11610ca3565b6040517f118cdaa7000000000000000000000000000000000000000000000000000000008152600401610d4491906120ff565b60405180910390fd5b565b6000600b60009054906101000a900473ffffffffffffffffffffffffffffffffffffffff16905081600b60006101000a81548173ffffffffffffffffffffffffffffffffffffffff021916908373ffffffffffffffffffffffffffffffffffffffff1602179055508173ffffffffffffffffffffffffffffffffffffffff168173ffffffffffffffffffffffffffffffffffffffff167f8be0079c531659141344cd1fd0a4f28419497f9722a3daafe3b4186f6b6457e060405160405180910390a35050565b600073ffffffffffffffffffffffffffffffffffffffff168273ffffffffffffffffffffffffffffffffffffffff1603610e875760006040517f64a0ae92000000000000000000000000000000000000000000000000000000008152600401610e7e91906120ff565b60405180910390fd5b6000610e9583836000610cb2565b9050600073ffffffffffffffffffffffffffffffffffffffff168173ffffffffffffffffffffffffffffffffffffffff1614610f095760006040517f73c6ac6e000000000000000000000000000000000000000000000000000000008152600401610f0091906120ff565b60405180910390fd5b505050565b606060006001610f1d84611349565b01905060008167ffffffffffffffff811115610f3c57610f3b61223a565b5b6040519080825280601f01601f191660200182016040528015610f6e5781602001600182028036833780820191505090505b509050600082602001820190505b600115610fd1578080600190039150507f3031323334353637383961626364656600000000000000000000000000000000600a86061a8153600a8581610fc557610fc46128de565b5b04945060008503610f7c575b819350505050919050565b80600660008481526020019081526020016000209081610ffc9190612ab9565b507ff8e1a15aba9398e019f0b49df1a4fde98ee17ae345cb5f6b5e2c27f5033e8ce78260405161102c9190612195565b60405180910390a15050565b606061104382610bde565b506000600660008481526020019081526020016000208054611064906125c0565b80601f0160208091040260200160405190810160405280929190818152602001828054611090906125c0565b80156110dd5780601f106110b2576101008083540402835291602001916110dd565b820191906000526020600020905b8154815290600101906020018083116110c057829003601f168201915b5050505050905060006110ee61149c565b90506000815103611103578192505050611146565b600082511115611138578082604051602001611120929190612b8b565b60405160208183030381529060405292505050611146565b611141846114b3565b925050505b919050565b6000634906490660e01b7bffffffffffffffffffffffffffffffffffffffffffffffffffffffff1916827bffffffffffffffffffffffffffffffffffffffffffffffffffffffff191614806111a557506111a48261151c565b5b9050919050565b60006002600083815260200190815260200160002060009054906101000a900473ffffffffffffffffffffffffffffffffffffffff169050919050565b60006111f43361071b565b801561120557506014600036905010155b1561121957601436033560601c9050611228565b6112216115fe565b9050611229565b5b90565b60008061123a858585611606565b9050600073ffffffffffffffffffffffffffffffffffffffff168173ffffffffffffffffffffffffffffffffffffffff160361127e5761127984611820565b6112bd565b8473ffffffffffffffffffffffffffffffffffffffff168173ffffffffffffffffffffffffffffffffffffffff16146112bc576112bb8185611869565b5b5b600073ffffffffffffffffffffffffffffffffffffffff168573ffffffffffffffffffffffffffffffffffffffff16036112ff576112fa846119ca565b61133e565b8473ffffffffffffffffffffffffffffffffffffffff168173ffffffffffffffffffffffffffffffffffffffff161461133d5761133c8585611a9b565b5b5b809150509392505050565b600080600090507a184f03e93ff9f4daa797ed6e38ed64bf6a1f01000000000000000083106113a7577a184f03e93ff9f4daa797ed6e38ed64bf6a1f010000000000000000838161139d5761139c6128de565b5b0492506040810190505b6d04ee2d6d415b85acef810000000083106113e4576d04ee2d6d415b85acef810000000083816113da576113d96128de565b5b0492506020810190505b662386f26fc10000831061141357662386f26fc100008381611409576114086128de565b5b0492506010810190505b6305f5e100831061143c576305f5e1008381611432576114316128de565b5b0492506008810190505b6127108310611461576127108381611457576114566128de565b5b0492506004810190505b60648310611484576064838161147a576114796128de565b5b0492506002810190505b600a8310611493576001810190505b80915050919050565b606060405180602001604052806000815250905090565b60606114be82610bde565b5060006114c961149c565b905060008151116114e95760405180602001604052806000815250611514565b806114f384610f0e565b604051602001611504929190612b8b565b6040516020818303038152906040525b915050919050565b60007f80ac58cd000000000000000000000000000000000000000000000000000000007bffffffffffffffffffffffffffffffffffffffffffffffffffffffff1916827bffffffffffffffffffffffffffffffffffffffffffffffffffffffff191614806115e757507f5b5e139f000000000000000000000000000000000000000000000000000000007bffffffffffffffffffffffffffffffffffffffffffffffffffffffff1916827bffffffffffffffffffffffffffffffffffffffffffffffffffffffff1916145b806115f757506115f682611b26565b5b9050919050565b600033905090565b600080611612846111ac565b9050600073ffffffffffffffffffffffffffffffffffffffff168373ffffffffffffffffffffffffffffffffffffffff161461165457611653818486611b90565b5b600073ffffffffffffffffffffffffffffffffffffffff168173ffffffffffffffffffffffffffffffffffffffff16146116e557611696600085600080611c54565b6001600360008373ffffffffffffffffffffffffffffffffffffffff1673ffffffffffffffffffffffffffffffffffffffff168152602001908152602001600020600082825403925050819055505b600073ffffffffffffffffffffffffffffffffffffffff168573ffffffffffffffffffffffffffffffffffffffff1614611768576001600360008773ffffffffffffffffffffffffffffffffffffffff1673ffffffffffffffffffffffffffffffffffffffff168152602001908152602001600020600082825401925050819055505b846002600086815260200190815260200160002060006101000a81548173ffffffffffffffffffffffffffffffffffffffff021916908373ffffffffffffffffffffffffffffffffffffffff160217905550838573ffffffffffffffffffffffffffffffffffffffff168273ffffffffffffffffffffffffffffffffffffffff167fddf252ad1be2c89b69c2b068fc378daa952ba7f163c4a11628f55a4df523b3ef60405160405180910390a4809150509392505050565b600980549050600a600083815260200190815260200160002081905550600981908060018154018082558091505060019003906000526020600020016000909190919091505550565b60006118748361076c565b9050600060086000848152602001908152602001600020549050818114611959576000600760008673ffffffffffffffffffffffffffffffffffffffff1673ffffffffffffffffffffffffffffffffffffffff168152602001908152602001600020600084815260200190815260200160002054905080600760008773ffffffffffffffffffffffffffffffffffffffff1673ffffffffffffffffffffffffffffffffffffffff168152602001908152602001600020600084815260200190815260200160002081905550816008600083815260200190815260200160002081905550505b6008600084815260200190815260200160002060009055600760008573ffffffffffffffffffffffffffffffffffffffff1673ffffffffffffffffffffffffffffffffffffffff16815260200190815260200160002060008381526020019081526020016000206000905550505050565b600060016009805490506119de9190612baf565b90506000600a6000848152602001908152602001600020549050600060098381548110611a0e57611a0d61273e565b5b906000526020600020015490508060098381548110611a3057611a2f61273e565b5b906000526020600020018190555081600a600083815260200190815260200160002081905550600a6000858152602001908152602001600020600090556009805480611a7f57611a7e612be3565b5b6001900381819060005260206000200160009055905550505050565b60006001611aa88461076c565b611ab29190612baf565b905081600760008573ffffffffffffffffffffffffffffffffffffffff1673ffffffffffffffffffffffffffffffffffffffff168152602001908152602001600020600083815260200190815260200160002081905550806008600084815260200190815260200160002081905550505050565b60007f01ffc9a7000000000000000000000000000000000000000000000000000000007bffffffffffffffffffffffffffffffffffffffffffffffffffffffff1916827bffffffffffffffffffffffffffffffffffffffffffffffffffffffff1916149050919050565b611b9b838383611e19565b611c4f57600073ffffffffffffffffffffffffffffffffffffffff168373ffffffffffffffffffffffffffffffffffffffff1603611c1057806040517f7e273289000000000000000000000000000000000000000000000000000000008152600401611c079190612195565b60405180910390fd5b81816040517f177e802f000000000000000000000000000000000000000000000000000000008152600401611c46929190612715565b60405180910390fd5b505050565b8080611c8d5750600073ffffffffffffffffffffffffffffffffffffffff168273ffffffffffffffffffffffffffffffffffffffff1614155b15611dc1576000611c9d84610bde565b9050600073ffffffffffffffffffffffffffffffffffffffff168373ffffffffffffffffffffffffffffffffffffffff1614158015611d0857508273ffffffffffffffffffffffffffffffffffffffff168173ffffffffffffffffffffffffffffffffffffffff1614155b8015611d1b5750611d198184610a4a565b155b15611d5d57826040517fa9fbf51f000000000000000000000000000000000000000000000000000000008152600401611d5491906120ff565b60405180910390fd5b8115611dbf57838573ffffffffffffffffffffffffffffffffffffffff168273ffffffffffffffffffffffffffffffffffffffff167f8c5be1e5ebec7d5bd14f71427d1e84f3dd0314c0f7b2291e5b200ac8c7c3b92560405160405180910390a45b505b836004600085815260200190815260200160002060006101000a81548173ffffffffffffffffffffffffffffffffffffffff021916908373ffffffffffffffffffffffffffffffffffffffff16021790555050505050565b60008073ffffffffffffffffffffffffffffffffffffffff168373ffffffffffffffffffffffffffffffffffffffff1614158015611ed157508273ffffffffffffffffffffffffffffffffffffffff168473ffffffffffffffffffffffffffffffffffffffff161480611e925750611e918484610a4a565b5b80611ed057508273ffffffffffffffffffffffffffffffffffffffff16611eb883610c66565b73ffffffffffffffffffffffffffffffffffffffff16145b5b90509392505050565b6000604051905090565b600080fd5b600080fd5b60007fffffffff0000000000000000000000000000000000000000000000000000000082169050919050565b611f2381611eee565b8114611f2e57600080fd5b50565b600081359050611f4081611f1a565b92915050565b600060208284031215611f5c57611f5b611ee4565b5b6000611f6a84828501611f31565b91505092915050565b60008115159050919050565b611f8881611f73565b82525050565b6000602082019050611fa36000830184611f7f565b92915050565b600081519050919050565b600082825260208201905092915050565b60005b83811015611fe3578082015181840152602081019050611fc8565b60008484015250505050565b6000601f19601f8301169050919050565b600061200b82611fa9565b6120158185611fb4565b9350612025818560208601611fc5565b61202e81611fef565b840191505092915050565b600060208201905081810360008301526120538184612000565b905092915050565b6000819050919050565b61206e8161205b565b811461207957600080fd5b50565b60008135905061208b81612065565b92915050565b6000602082840312156120a7576120a6611ee4565b5b60006120b58482850161207c565b91505092915050565b600073ffffffffffffffffffffffffffffffffffffffff82169050919050565b60006120e9826120be565b9050919050565b6120f9816120de565b82525050565b600060208201905061211460008301846120f0565b92915050565b612123816120de565b811461212e57600080fd5b50565b6000813590506121408161211a565b92915050565b6000806040838503121561215d5761215c611ee4565b5b600061216b85828601612131565b925050602061217c8582860161207c565b9150509250929050565b61218f8161205b565b82525050565b60006020820190506121aa6000830184612186565b92915050565b6000806000606084860312156121c9576121c8611ee4565b5b60006121d786828701612131565b93505060206121e886828701612131565b92505060406121f98682870161207c565b9150509250925092565b60006020828403121561221957612218611ee4565b5b600061222784828501612131565b91505092915050565b600080fd5b600080fd5b7f4e487b7100000000000000000000000000000000000000000000000000000000600052604160045260246000fd5b61227282611fef565b810181811067ffffffffffffffff821117156122915761229061223a565b5b80604052505050565b60006122a4611eda565b90506122b08282612269565b919050565b600067ffffffffffffffff8211156122d0576122cf61223a565b5b6122d982611fef565b9050602081019050919050565b82818337600083830152505050565b6000612308612303846122b5565b61229a565b90508281526020810184848401111561232457612323612235565b5b61232f8482856122e6565b509392505050565b600082601f83011261234c5761234b612230565b5b813561235c8482602086016122f5565b91505092915050565b6000806040838503121561237c5761237b611ee4565b5b600061238a85828601612131565b925050602083013567ffffffffffffffff8111156123ab576123aa611ee9565b5b6123b785828601612337565b9150509250929050565b6123ca81611f73565b81146123d557600080fd5b50565b6000813590506123e7816123c1565b92915050565b6000806040838503121561240457612403611ee4565b5b600061241285828601612131565b9250506020612423858286016123d8565b9150509250929050565b600067ffffffffffffffff8211156124485761244761223a565b5b61245182611fef565b9050602081019050919050565b600061247161246c8461242d565b61229a565b90508281526020810184848401111561248d5761248c612235565b5b6124988482856122e6565b509392505050565b600082601f8301126124b5576124b4612230565b5b81356124c584826020860161245e565b91505092915050565b600080600080608085870312156124e8576124e7611ee4565b5b60006124f687828801612131565b945050602061250787828801612131565b93505060406125188782880161207c565b925050606085013567ffffffffffffffff81111561253957612538611ee9565b5b612545878288016124a0565b91505092959194509250565b6000806040838503121561256857612567611ee4565b5b600061257685828601612131565b925050602061258785828601612131565b9150509250929050565b7f4e487b7100000000000000000000000000000000000000000000000000000000600052602260045260246000fd5b600060028204905060018216806125d857607f821691505b6020821081036125eb576125ea612591565b5b50919050565b7f417070726f76616c206973206e6f7420616c6c6f77656420666f72207468697360008201527f20746f6b656e0000000000000000000000000000000000000000000000000000602082015250565b600061264d602683611fb4565b9150612658826125f1565b604082019050919050565b6000602082019050818103600083015261267c81612640565b9050919050565b7f5472616e73666572206973206e6f7420616c6c6f77656420666f72207468697360008201527f20746f6b656e0000000000000000000000000000000000000000000000000000602082015250565b60006126df602683611fb4565b91506126ea82612683565b604082019050919050565b6000602082019050818103600083015261270e816126d2565b9050919050565b600060408201905061272a60008301856120f0565b6127376020830184612186565b9392505050565b7f4e487b7100000000000000000000000000000000000000000000000000000000600052603260045260246000fd5b7f4e487b7100000000000000000000000000000000000000000000000000000000600052601160045260246000fd5b60006127a78261205b565b91506127b28361205b565b92508282019050808211156127ca576127c961276d565b5b92915050565b600081905092915050565b60006127e682611fa9565b6127f081856127d0565b9350612800818560208601611fc5565b80840191505092915050565b7f2f00000000000000000000000000000000000000000000000000000000000000600082015250565b60006128426001836127d0565b915061284d8261280c565b600182019050919050565b7f2e6a736f6e000000000000000000000000000000000000000000000000000000600082015250565b600061288e6005836127d0565b915061289982612858565b600582019050919050565b60006128b082856127db565b91506128bb82612835565b91506128c782846127db565b91506128d282612881565b91508190509392505050565b7f4e487b7100000000000000000000000000000000000000000000000000000000600052601260045260246000fd5b60008190508160005260206000209050919050565b60006020601f8301049050919050565b600082821b905092915050565b60006008830261296f7fffffffffffffffffffffffffffffffffffffffffffffffffffffffffffffffff82612932565b6129798683612932565b95508019841693508086168417925050509392505050565b6000819050919050565b60006129b66129b16129ac8461205b565b612991565b61205b565b9050919050565b6000819050919050565b6129d08361299b565b6129e46129dc826129bd565b84845461293f565b825550505050565b600090565b6129f96129ec565b612a048184846129c7565b505050565b5b81811015612a2857612a1d6000826129f1565b600181019050612a0a565b5050565b601f821115612a6d57612a3e8161290d565b612a4784612922565b81016020851015612a56578190505b612a6a612a6285612922565b830182612a09565b50505b505050565b600082821c905092915050565b6000612a9060001984600802612a72565b1980831691505092915050565b6000612aa98383612a7f565b9150826002028217905092915050565b612ac282611fa9565b67ffffffffffffffff811115612adb57612ada61223a565b5b612ae582546125c0565b612af0828285612a2c565b600060209050601f831160018114612b235760008415612b11578287015190505b612b1b8582612a9d565b865550612b83565b601f198416612b318661290d565b60005b82811015612b5957848901518255600182019150602085019450602081019050612b34565b86831015612b765784890151612b72601f891682612a7f565b8355505b6001600288020188555050505b505050505050565b6000612b9782856127db565b9150612ba382846127db565b91508190509392505050565b6000612bba8261205b565b9150612bc58361205b565b9250828203905081811115612bdd57612bdc61276d565b5b92915050565b7f4e487b7100000000000000000000000000000000000000000000000000000000600052603160045260246000fdfea264697066735822122098c324f50bcebe1edd8d3604508cb684538a4a8a2268e699185ca4be3dff0ba264736f6c63430008140033",
  "linkReferences": {},
  "deployedLinkReferences": {}
}